:02000000A72A2D
:10000600FB14FB1F0D28FF30F300F200F100F00097
:08001600FA0DF20CFF300800A6
:0E001E00F201F101F001F801F30100300800D9
:10002C007B15FB1F20280130F300F201F101F001D8
:08003C00FA0DF20CFF30080080
:08004400FA1FF213003008005E
:10004C008312031330089300831614182F28000012
:0A005C002A2883121308F0000800A0
:0E0066008312031325088A0024088200080074
:10007400A0017208031D4F287108F2007008F100F6
:10008400F001A0157208031D4F287108F200F10158
:10009400A0112016720803195D282008F302031D1D
:1000A400031C61280310F21B6528F00DF10DF20DFD
:1000B400F30B552861280130FC000F20682802301A
:0E00C400FC00162068280430FC0022200800F2
:1000D2007C189F28FC1870287C19BE286928A0016A
:1000E2007208031D90287108F2007008F100780868
:1000F200F000F801A0157208031D90287108F200A3
:100102007008F100F001A01120167208031D90285A
:100112007108F200F101A01572080319B228200833
:10012200F302031D031CB6280310F21B9F28F80DCF
:10013200F00DF10DF20DF30B9628B6287B1B701C07
:10014200BA28F81FBA28F00A0319F10A0319F20AA9
:10015200031DBA28F20CF10CF00CF30A0319BE28A5
:10016200BA280130FC000F20C1280230FC00162002
:10017200C1280430FC002220C1280830FC000320E2
:040182000000080071
:100186007B14FB1FCE28F201FA1FFF30F200F100AC
:0A019600F000FA0DF20CFF30080033
:1001A0000E3083120313FD00FD0BD428000008005D
:1001B00083160313871287110716831294014030A8
:0A01C00083169400831294160800C1
:1001CA008312031307102F08F000F1010F30700596
:1001DA00B0003030B00426202E08B00026200714C4
:0201EA0008000B
:1001EC0033208A110A128000840AA40A0319A50A72
:0801FC00F003031DF6280800C2
:1002040083120313FB01FC01FA017308031941294A
:10021400F2178E30F302F31B122903191229442911
:10022400F309F30A08307302031C2729F300F10DC4
:100234007208F100F20108307302031C2729F10D42
:10024400F1017308031D03102F29730803192F29C3
:100254000310F20CF10CF30B2A297B1B711C3929B6
:10026400031C3929F10A0319F20AF21B5029FA1F57
:100274005329F209F109F10A0319F20A5329F20187
:10028400F10153297B14FB1F5629F201FA1F562949
:10029400FF30F200F100FA0DF20C56290130FC0097
:1002A40058290030FC005829FF30FC00FC080319D1
:0E02B4005C29C3207108F0007208F1000800F8
:1002C200831603130514851483120714831607106B
:0402D200D820080028
:1002D6008312031372087606A000F801F901730869
:1002E6007702031C8E297708FD007308F7007D0846
:1002F600F3007608FD007208F6007D08F200750826
:10030600FD007108F5007D08F1007408FD00700815
:10031600F4007D08F00077080319072A7208FA002E
:10032600F217F61777087302F7000319C129083088
:100336007702031CB729F7007408F9007508F40062
:100346007608F500F60108307702031CB729F70096
:100356007408F9007508F400F50108307702031CEB
:10036600B7297A08F200072A77080319C12903106A
:10037600F60CF50CF40CF90CF70BBA29A01FCE29D4
:10038600F909F409F509F609F90A0319F40A031932
:10039600F50A0319F60A7908F80774080318740FA2
:1003A600F00775080318750FF10776080318760F1E
:1003B600F207A01BE729031CF729F20CF10CF00C3D
:1003C600F80CF30FF729032A0318FB29F809F0099B
:1003D600F109F209F80A0319F00A0319F10A0319D7
:1003E600F20A8030FA06FF290130FC006920092A4A
:1003F6000230FC006920092A0430FC003A20092A50
:100406000830FC000320092A0030FC000000080028
:10041600831203139F01C0309F0483161F179F1773
:1004260083122E08F000F00D7010F00D7010F00D14
:10043600701070089F041F14D0201F151F1D252A39
:100446000000212A1F101E08F100F00183161E0865
:08045600F0040030F10408007D
:10045E00FF3083120313A100FF30A200FF30A30070
:10046E00FF309F01C0309F0483161F179F17831202
:04047E001F1408003F
:1004820083120313FA017308031D7A147708031DFC
:10049200FA147A0803198D2A033A0319582A7A188A
:1004A200552AF61F8B2A892AF21F892A8B2A72085B
:1004B2008039FA00F21376088039F6137A060319A6
:1004C200662A7A080319892A8B2A77087302031984
:1004D2006D2A031C812A852A760872020319742A5E
:1004E200031C812A852A7508710203197B2A031CC1
:1004F200812A852A7408700203198D2A0318852A15
:10050200FA0803198B2A892AFA080319892A8B2ADD
:100512000314080003100800031403150800080060
:10052200831203137008F8007108F000F101F20160
:10053200F301FB01FC019630F300FA017008F100AF
:0C0542007808F000F801F2013A200800EF
:10054E0083120313AA01AB01AC01AD012F22831656
:10055E00870186018312A601A701A801A901003017
:10056E00F4000030F5007A30F6008830F7002608E7
:10057E00F0002708F1002808F2002908F3004122B4
:10058E00013003180030F00070080319032B0230FD
:10059E00AE000B2291227008AA007108AB007208FF
:1005AE00AC007308AD0061212A08F0002B08F100A1
:1005BE002C08F2002D08F30002217008AE0071081D
:1005CE00AF00E5202608F0002708F1002808F20009
:1005DE002908F3001730F400B730F5005130F6005B
:1005EE007030F7006B217008A6007108A700720822
:0A05FE00A8007308A900B62A032B19
:02400E007A3303
:00000001FF
